{
  "contractName": "OLAToken",
  "abi": [
    {
      "inputs": [
        {
          "internalType": "uint256",
          "name": "initialSupply",
          "type": "uint256"
        }
      ],
      "stateMutability": "nonpayable",
      "type": "constructor"
    },
    {
      "anonymous": false,
      "inputs": [
        {
          "indexed": true,
          "internalType": "address",
          "name": "owner",
          "type": "address"
        },
        {
          "indexed": true,
          "internalType": "address",
          "name": "spender",
          "type": "address"
        },
        {
          "indexed": false,
          "internalType": "uint256",
          "name": "value",
          "type": "uint256"
        }
      ],
      "name": "Approval",
      "type": "event"
    },
    {
      "anonymous": false,
      "inputs": [
        {
          "indexed": true,
          "internalType": "address",
          "name": "previousOwner",
          "type": "address"
        },
        {
          "indexed": true,
          "internalType": "address",
          "name": "newOwner",
          "type": "address"
        }
      ],
      "name": "OwnershipTransferred",
      "type": "event"
    },
    {
      "anonymous": false,
      "inputs": [
        {
          "indexed": true,
          "internalType": "address",
          "name": "from",
          "type": "address"
        },
        {
          "indexed": true,
          "internalType": "address",
          "name": "to",
          "type": "address"
        },
        {
          "indexed": false,
          "internalType": "uint256",
          "name": "value",
          "type": "uint256"
        }
      ],
      "name": "Transfer",
      "type": "event"
    },
    {
      "inputs": [],
      "name": "_name",
      "outputs": [
        {
          "internalType": "string",
          "name": "",
          "type": "string"
        }
      ],
      "stateMutability": "view",
      "type": "function",
      "constant": true
    },
    {
      "inputs": [],
      "name": "_symbol",
      "outputs": [
        {
          "internalType": "string",
          "name": "",
          "type": "string"
        }
      ],
      "stateMutability": "view",
      "type": "function",
      "constant": true
    },
    {
      "inputs": [
        {
          "internalType": "address",
          "name": "owner",
          "type": "address"
        },
        {
          "internalType": "address",
          "name": "spender",
          "type": "address"
        }
      ],
      "name": "allowance",
      "outputs": [
        {
          "internalType": "uint256",
          "name": "",
          "type": "uint256"
        }
      ],
      "stateMutability": "view",
      "type": "function",
      "constant": true
    },
    {
      "inputs": [
        {
          "internalType": "address",
          "name": "spender",
          "type": "address"
        },
        {
          "internalType": "uint256",
          "name": "amount",
          "type": "uint256"
        }
      ],
      "name": "approve",
      "outputs": [
        {
          "internalType": "bool",
          "name": "",
          "type": "bool"
        }
      ],
      "stateMutability": "nonpayable",
      "type": "function"
    },
    {
      "inputs": [
        {
          "internalType": "address",
          "name": "account",
          "type": "address"
        }
      ],
      "name": "balanceOf",
      "outputs": [
        {
          "internalType": "uint256",
          "name": "",
          "type": "uint256"
        }
      ],
      "stateMutability": "view",
      "type": "function",
      "constant": true
    },
    {
      "inputs": [
        {
          "internalType": "address",
          "name": "account",
          "type": "address"
        },
        {
          "internalType": "uint256",
          "name": "amount",
          "type": "uint256"
        }
      ],
      "name": "burnFrom",
      "outputs": [],
      "stateMutability": "nonpayable",
      "type": "function"
    },
    {
      "inputs": [],
      "name": "decimals",
      "outputs": [
        {
          "internalType": "uint8",
          "name": "",
          "type": "uint8"
        }
      ],
      "stateMutability": "view",
      "type": "function",
      "constant": true
    },
    {
      "inputs": [
        {
          "internalType": "address",
          "name": "spender",
          "type": "address"
        },
        {
          "internalType": "uint256",
          "name": "subtractedValue",
          "type": "uint256"
        }
      ],
      "name": "decreaseAllowance",
      "outputs": [
        {
          "internalType": "bool",
          "name": "",
          "type": "bool"
        }
      ],
      "stateMutability": "nonpayable",
      "type": "function"
    },
    {
      "inputs": [
        {
          "internalType": "address",
          "name": "spender",
          "type": "address"
        },
        {
          "internalType": "uint256",
          "name": "addedValue",
          "type": "uint256"
        }
      ],
      "name": "increaseAllowance",
      "outputs": [
        {
          "internalType": "bool",
          "name": "",
          "type": "bool"
        }
      ],
      "stateMutability": "nonpayable",
      "type": "function"
    },
    {
      "inputs": [],
      "name": "name",
      "outputs": [
        {
          "internalType": "string",
          "name": "",
          "type": "string"
        }
      ],
      "stateMutability": "view",
      "type": "function",
      "constant": true
    },
    {
      "inputs": [],
      "name": "owner",
      "outputs": [
        {
          "internalType": "address",
          "name": "",
          "type": "address"
        }
      ],
      "stateMutability": "view",
      "type": "function",
      "constant": true
    },
    {
      "inputs": [],
      "name": "renounceOwnership",
      "outputs": [],
      "stateMutability": "nonpayable",
      "type": "function"
    },
    {
      "inputs": [],
      "name": "symbol",
      "outputs": [
        {
          "internalType": "string",
          "name": "",
          "type": "string"
        }
      ],
      "stateMutability": "view",
      "type": "function",
      "constant": true
    },
    {
      "inputs": [],
      "name": "totalSupply",
      "outputs": [
        {
          "internalType": "uint256",
          "name": "",
          "type": "uint256"
        }
      ],
      "stateMutability": "view",
      "type": "function",
      "constant": true
    },
    {
      "inputs": [
        {
          "internalType": "address",
          "name": "recipient",
          "type": "address"
        },
        {
          "internalType": "uint256",
          "name": "amount",
          "type": "uint256"
        }
      ],
      "name": "transfer",
      "outputs": [
        {
          "internalType": "bool",
          "name": "",
          "type": "bool"
        }
      ],
      "stateMutability": "nonpayable",
      "type": "function"
    },
    {
      "inputs": [
        {
          "internalType": "address",
          "name": "sender",
          "type": "address"
        },
        {
          "internalType": "address",
          "name": "recipient",
          "type": "address"
        },
        {
          "internalType": "uint256",
          "name": "amount",
          "type": "uint256"
        }
      ],
      "name": "transferFrom",
      "outputs": [
        {
          "internalType": "bool",
          "name": "",
          "type": "bool"
        }
      ],
      "stateMutability": "nonpayable",
      "type": "function"
    },
    {
      "inputs": [
        {
          "internalType": "address",
          "name": "newOwner",
          "type": "address"
        }
      ],
      "name": "transferOwnership",
      "outputs": [],
      "stateMutability": "nonpayable",
      "type": "function"
    },
    {
      "inputs": [
        {
          "internalType": "uint256",
          "name": "amount",
          "type": "uint256"
        }
      ],
      "name": "burn",
      "outputs": [],
      "stateMutability": "nonpayable",
      "type": "function"
    }
  ],
  "bytecode": "0x60806040526040518060400160405280600981526020017f4f4c4120546f6b656e00000000000000000000000000000000000000000000008152506006908051906020019062000051929190620004ea565b506040518060400160405280600381526020017f4f4c410000000000000000000000000000000000000000000000000000000000815250600790805190602001906200009f929190620004ea565b50348015620000ad57600080fd5b5060405162002919380380620029198339818101604052810190620000d39190620005da565b60068054620000e2906200063b565b80601f016020809104026020016040519081016040528092919081815260200182805462000110906200063b565b8015620001615780601f10620001355761010080835404028352916020019162000161565b820191906000526020600020905b8154815290600101906020018083116200014357829003601f168201915b50505050506007805462000175906200063b565b80601f0160208091040260200160405190810160405280929190818152602001828054620001a3906200063b565b8015620001f45780601f10620001c857610100808354040283529160200191620001f4565b820191906000526020600020905b815481529060010190602001808311620001d657829003601f168201915b5050505050816003908051906020019062000211929190620004ea565b5080600490805190602001906200022a929190620004ea565b5050506200024d620002416200029060201b60201c565b6200029860201b60201c565b6200028933620002626200035e60201b60201c565b600a62000270919062000801565b836200027d919062000852565b6200036760201b60201c565b50620009c1565b600033905090565b6000600560009054906101000a900473ffffffffffffffffffffffffffffffffffffffff16905081600560006101000a81548173ffffffffffffffffffffffffffffffffffffffff021916908373ffffffffffffffffffffffffffffffffffffffff1602179055508173ffffffffffffffffffffffffffffffffffffffff168173ffffffffffffffffffffffffffffffffffffffff167f8be0079c531659141344cd1fd0a4f28419497f9722a3daafe3b4186f6b6457e060405160405180910390a35050565b60006012905090565b600073ffffffffffffffffffffffffffffffffffffffff168273ffffffffffffffffffffffffffffffffffffffff161415620003da576040517f08c379a0000000000000000000000000000000000000000000000000000000008152600401620003d19062000914565b60405180910390fd5b620003ee60008383620004e060201b60201c565b806002600082825462000402919062000936565b92505081905550806000808473ffffffffffffffffffffffffffffffffffffffff1673ffffffffffffffffffffffffffffffffffffffff168152602001908152602001600020600082825462000459919062000936565b925050819055508173ffffffffffffffffffffffffffffffffffffffff16600073ffffffffffffffffffffffffffffffffffffffff167fddf252ad1be2c89b69c2b068fc378daa952ba7f163c4a11628f55a4df523b3ef83604051620004c09190620009a4565b60405180910390a3620004dc60008383620004e560201b60201c565b5050565b505050565b505050565b828054620004f8906200063b565b90600052602060002090601f0160209004810192826200051c576000855562000568565b82601f106200053757805160ff191683800117855562000568565b8280016001018555821562000568579182015b82811115620005675782518255916020019190600101906200054a565b5b5090506200057791906200057b565b5090565b5b80821115620005965760008160009055506001016200057c565b5090565b600080fd5b6000819050919050565b620005b4816200059f565b8114620005c057600080fd5b50565b600081519050620005d481620005a9565b92915050565b600060208284031215620005f357620005f26200059a565b5b60006200060384828501620005c3565b91505092915050565b7f4e487b7100000000000000000000000000000000000000000000000000000000600052602260045260246000fd5b600060028204905060018216806200065457607f821691505b602082108114156200066b576200066a6200060c565b5b50919050565b7f4e487b7100000000000000000000000000000000000000000000000000000000600052601160045260246000fd5b60008160011c9050919050565b6000808291508390505b6001851115620006ff57808604811115620006d757620006d662000671565b5b6001851615620006e75780820291505b8081029050620006f785620006a0565b9450620006b7565b94509492505050565b6000826200071a5760019050620007ed565b816200072a5760009050620007ed565b81600181146200074357600281146200074e5762000784565b6001915050620007ed565b60ff84111562000763576200076262000671565b5b8360020a9150848211156200077d576200077c62000671565b5b50620007ed565b5060208310610133831016604e8410600b8410161715620007be5782820a905083811115620007b857620007b762000671565b5b620007ed565b620007cd8484846001620006ad565b92509050818404811115620007e757620007e662000671565b5b81810290505b9392505050565b600060ff82169050919050565b60006200080e826200059f565b91506200081b83620007f4565b92506200084a7fffffffffffffffffffffffffffffffffffffffffffffffffffffffffffffffff848462000708565b905092915050565b60006200085f826200059f565b91506200086c836200059f565b9250817fffffffffffffffffffffffffffffffffffffffffffffffffffffffffffffffff0483118215151615620008a857620008a762000671565b5b828202905092915050565b600082825260208201905092915050565b7f45524332303a206d696e7420746f20746865207a65726f206164647265737300600082015250565b6000620008fc601f83620008b3565b91506200090982620008c4565b602082019050919050565b600060208201905081810360008301526200092f81620008ed565b9050919050565b600062000943826200059f565b915062000950836200059f565b9250827fffffffffffffffffffffffffffffffffffffffffffffffffffffffffffffffff0382111562000988576200098762000671565b5b828201905092915050565b6200099e816200059f565b82525050565b6000602082019050620009bb600083018462000993565b92915050565b611f4880620009d16000396000f3fe608060405234801561001057600080fd5b50600436106101165760003560e01c806379cc6790116100a2578063a9059cbb11610071578063a9059cbb146102e3578063b09f126614610313578063d28d885214610331578063dd62ed3e1461034f578063f2fde38b1461037f57610116565b806379cc67901461025b5780638da5cb5b1461027757806395d89b4114610295578063a457c2d7146102b357610116565b8063313ce567116100e9578063313ce567146101b757806339509351146101d557806342966c681461020557806370a0823114610221578063715018a61461025157610116565b806306fdde031461011b578063095ea7b31461013957806318160ddd1461016957806323b872dd14610187575b600080fd5b61012361039b565b60405161013091906113ab565b60405180910390f35b610153600480360381019061014e9190611466565b61042d565b60405161016091906114c1565b60405180910390f35b61017161044b565b60405161017e91906114eb565b60405180910390f35b6101a1600480360381019061019c9190611506565b610455565b6040516101ae91906114c1565b60405180910390f35b6101bf61054d565b6040516101cc9190611575565b60405180910390f35b6101ef60048036038101906101ea9190611466565b610556565b6040516101fc91906114c1565b60405180910390f35b61021f600480360381019061021a9190611590565b610602565b005b61023b600480360381019061023691906115bd565b61066c565b60405161024891906114eb565b60405180910390f35b6102596106b4565b005b61027560048036038101906102709190611466565b61073c565b005b61027f6107b7565b60405161028c91906115f9565b60405180910390f35b61029d6107e1565b6040516102aa91906113ab565b60405180910390f35b6102cd60048036038101906102c89190611466565b610873565b6040516102da91906114c1565b60405180910390f35b6102fd60048036038101906102f89190611466565b61095e565b60405161030a91906114c1565b60405180910390f35b61031b61097c565b60405161032891906113ab565b60405180910390f35b610339610a0a565b60405161034691906113ab565b60405180910390f35b61036960048036038101906103649190611614565b610a98565b60405161037691906114eb565b60405180910390f35b610399600480360381019061039491906115bd565b610b1f565b005b6060600380546103aa90611683565b80601f01602080910402602001604051908101604052809291908181526020018280546103d690611683565b80156104235780601f106103f857610100808354040283529160200191610423565b820191906000526020600020905b81548152906001019060200180831161040657829003601f168201915b5050505050905090565b600061044161043a610c17565b8484610c1f565b6001905092915050565b6000600254905090565b6000610462848484610dea565b6000600160008673ffffffffffffffffffffffffffffffffffffffff1673ffffffffffffffffffffffffffffffffffffffff16815260200190815260200160002060006104ad610c17565b73ffffffffffffffffffffffffffffffffffffffff1673ffffffffffffffffffffffffffffffffffffffff1681526020019081526020016000205490508281101561052d576040517f08c379a000000000000000000000000000000000000000000000000000000000815260040161052490611727565b60405180910390fd5b61054185610539610c17565b858403610c1f565b60019150509392505050565b60006012905090565b60006105f8610563610c17565b848460016000610571610c17565b73ffffffffffffffffffffffffffffffffffffffff1673ffffffffffffffffffffffffffffffffffffffff16815260200190815260200160002060008873ffffffffffffffffffffffffffffffffffffffff1673ffffffffffffffffffffffffffffffffffffffff168152602001908152602001600020546105f39190611776565b610c1f565b6001905092915050565b606461060c61044b565b61061691906117fb565b811115610658576040517f08c379a000000000000000000000000000000000000000000000000000000000815260040161064f9061189e565b60405180910390fd5b610669610663610c17565b8261106b565b50565b60008060008373ffffffffffffffffffffffffffffffffffffffff1673ffffffffffffffffffffffffffffffffffffffff168152602001908152602001600020549050919050565b6106bc610c17565b73ffffffffffffffffffffffffffffffffffffffff166106da6107b7565b73ffffffffffffffffffffffffffffffffffffffff1614610730576040517f08c379a00000000000000000000000000000000000000000000000000000000081526004016107279061190a565b60405180910390fd5b61073a6000611242565b565b600061074f8361074a610c17565b610a98565b905081811015610794576040517f08c379a000000000000000000000000000000000000000000000000000000000815260040161078b9061199c565b60405180910390fd5b6107a8836107a0610c17565b848403610c1f565b6107b2838361106b565b505050565b6000600560009054906101000a900473ffffffffffffffffffffffffffffffffffffffff16905090565b6060600480546107f090611683565b80601f016020809104026020016040519081016040528092919081815260200182805461081c90611683565b80156108695780601f1061083e57610100808354040283529160200191610869565b820191906000526020600020905b81548152906001019060200180831161084c57829003601f168201915b5050505050905090565b60008060016000610882610c17565b73ffffffffffffffffffffffffffffffffffffffff1673ffffffffffffffffffffffffffffffffffffffff16815260200190815260200160002060008573ffffffffffffffffffffffffffffffffffffffff1673ffffffffffffffffffffffffffffffffffffffff1681526020019081526020016000205490508281101561093f576040517f08c379a000000000000000000000000000000000000000000000000000000000815260040161093690611a2e565b60405180910390fd5b61095361094a610c17565b85858403610c1f565b600191505092915050565b600061097261096b610c17565b8484610dea565b6001905092915050565b6007805461098990611683565b80601f01602080910402602001604051908101604052809291908181526020018280546109b590611683565b8015610a025780601f106109d757610100808354040283529160200191610a02565b820191906000526020600020905b8154815290600101906020018083116109e557829003601f168201915b505050505081565b60068054610a1790611683565b80601f0160208091040260200160405190810160405280929190818152602001828054610a4390611683565b8015610a905780601f10610a6557610100808354040283529160200191610a90565b820191906000526020600020905b815481529060010190602001808311610a7357829003601f168201915b505050505081565b6000600160008473ffffffffffffffffffffffffffffffffffffffff1673ffffffffffffffffffffffffffffffffffffffff16815260200190815260200160002060008373ffffffffffffffffffffffffffffffffffffffff1673ffffffffffffffffffffffffffffffffffffffff16815260200190815260200160002054905092915050565b610b27610c17565b73ffffffffffffffffffffffffffffffffffffffff16610b456107b7565b73ffffffffffffffffffffffffffffffffffffffff1614610b9b576040517f08c379a0000000000000000000000000000000000000000000000000000000008152600401610b929061190a565b60405180910390fd5b600073ffffffffffffffffffffffffffffffffffffffff168173ffffffffffffffffffffffffffffffffffffffff161415610c0b576040517f08c379a0000000000000000000000000000000000000000000000000000000008152600401610c0290611ac0565b60405180910390fd5b610c1481611242565b50565b600033905090565b600073ffffffffffffffffffffffffffffffffffffffff168373ffffffffffffffffffffffffffffffffffffffff161415610c8f576040517f08c379a0000000000000000000000000000000000000000000000000000000008152600401610c8690611b52565b60405180910390fd5b600073ffffffffffffffffffffffffffffffffffffffff168273ffffffffffffffffffffffffffffffffffffffff161415610cff576040517f08c379a0000000000000000000000000000000000000000000000000000000008152600401610cf690611be4565b60405180910390fd5b80600160008573ffffffffffffffffffffffffffffffffffffffff1673ffffffffffffffffffffffffffffffffffffffff16815260200190815260200160002060008473ffffffffffffffffffffffffffffffffffffffff1673ffffffffffffffffffffffffffffffffffffffff168152602001908152602001600020819055508173ffffffffffffffffffffffffffffffffffffffff168373ffffffffffffffffffffffffffffffffffffffff167f8c5be1e5ebec7d5bd14f71427d1e84f3dd0314c0f7b2291e5b200ac8c7c3b92583604051610ddd91906114eb565b60405180910390a3505050565b600073ffffffffffffffffffffffffffffffffffffffff168373ffffffffffffffffffffffffffffffffffffffff161415610e5a576040517f08c379a0000000000000000000000000000000000000000000000000000000008152600401610e5190611c76565b60405180910390fd5b600073ffffffffffffffffffffffffffffffffffffffff168273ffffffffffffffffffffffffffffffffffffffff161415610eca576040517f08c379a0000000000000000000000000000000000000000000000000000000008152600401610ec190611d08565b60405180910390fd5b610ed5838383611308565b60008060008573ffffffffffffffffffffffffffffffffffffffff1673ffffffffffffffffffffffffffffffffffffffff16815260200190815260200160002054905081811015610f5b576040517f08c379a0000000000000000000000000000000000000000000000000000000008152600401610f5290611d9a565b60405180910390fd5b8181036000808673ffffffffffffffffffffffffffffffffffffffff1673ffffffffffffffffffffffffffffffffffffffff16815260200190815260200160002081905550816000808573ffffffffffffffffffffffffffffffffffffffff1673ffffffffffffffffffffffffffffffffffffffff1681526020019081526020016000206000828254610fee9190611776565b925050819055508273ffffffffffffffffffffffffffffffffffffffff168473ffffffffffffffffffffffffffffffffffffffff167fddf252ad1be2c89b69c2b068fc378daa952ba7f163c4a11628f55a4df523b3ef8460405161105291906114eb565b60405180910390a361106584848461130d565b50505050565b600073ffffffffffffffffffffffffffffffffffffffff168273ffffffffffffffffffffffffffffffffffffffff1614156110db576040517f08c379a00000000000000000000000000000000000000000000000000000000081526004016110d290611e2c565b60405180910390fd5b6110e782600083611308565b60008060008473ffffffffffffffffffffffffffffffffffffffff1673ffffffffffffffffffffffffffffffffffffffff1681526020019081526020016000205490508181101561116d576040517f08c379a000000000000000000000000000000000000000000000000000000000815260040161116490611ebe565b60405180910390fd5b8181036000808573ffffffffffffffffffffffffffffffffffffffff1673ffffffffffffffffffffffffffffffffffffffff1681526020019081526020016000208190555081600260008282546111c49190611ede565b92505081905550600073ffffffffffffffffffffffffffffffffffffffff168373ffffffffffffffffffffffffffffffffffffffff167fddf252ad1be2c89b69c2b068fc378daa952ba7f163c4a11628f55a4df523b3ef8460405161122991906114eb565b60405180910390a361123d8360008461130d565b505050565b6000600560009054906101000a900473ffffffffffffffffffffffffffffffffffffffff16905081600560006101000a81548173ffffffffffffffffffffffffffffffffffffffff021916908373ffffffffffffffffffffffffffffffffffffffff1602179055508173ffffffffffffffffffffffffffffffffffffffff168173ffffffffffffffffffffffffffffffffffffffff167f8be0079c531659141344cd1fd0a4f28419497f9722a3daafe3b4186f6b6457e060405160405180910390a35050565b505050565b505050565b600081519050919050565b600082825260208201905092915050565b60005b8381101561134c578082015181840152602081019050611331565b8381111561135b576000848401525b50505050565b6000601f19601f8301169050919050565b600061137d82611312565b611387818561131d565b935061139781856020860161132e565b6113a081611361565b840191505092915050565b600060208201905081810360008301526113c58184611372565b905092915050565b600080fd5b600073ffffffffffffffffffffffffffffffffffffffff82169050919050565b60006113fd826113d2565b9050919050565b61140d816113f2565b811461141857600080fd5b50565b60008135905061142a81611404565b92915050565b6000819050919050565b61144381611430565b811461144e57600080fd5b50565b6000813590506114608161143a565b92915050565b6000806040838503121561147d5761147c6113cd565b5b600061148b8582860161141b565b925050602061149c85828601611451565b9150509250929050565b60008115159050919050565b6114bb816114a6565b82525050565b60006020820190506114d660008301846114b2565b92915050565b6114e581611430565b82525050565b600060208201905061150060008301846114dc565b92915050565b60008060006060848603121561151f5761151e6113cd565b5b600061152d8682870161141b565b935050602061153e8682870161141b565b925050604061154f86828701611451565b9150509250925092565b600060ff82169050919050565b61156f81611559565b82525050565b600060208201905061158a6000830184611566565b92915050565b6000602082840312156115a6576115a56113cd565b5b60006115b484828501611451565b91505092915050565b6000602082840312156115d3576115d26113cd565b5b60006115e18482850161141b565b91505092915050565b6115f3816113f2565b82525050565b600060208201905061160e60008301846115ea565b92915050565b6000806040838503121561162b5761162a6113cd565b5b60006116398582860161141b565b925050602061164a8582860161141b565b9150509250929050565b7f4e487b7100000000000000000000000000000000000000000000000000000000600052602260045260246000fd5b6000600282049050600182168061169b57607f821691505b602082108114156116af576116ae611654565b5b50919050565b7f45524332303a207472616e7366657220616d6f756e742065786365656473206160008201527f6c6c6f77616e6365000000000000000000000000000000000000000000000000602082015250565b600061171160288361131d565b915061171c826116b5565b604082019050919050565b6000602082019050818103600083015261174081611704565b9050919050565b7f4e487b7100000000000000000000000000000000000000000000000000000000600052601160045260246000fd5b600061178182611430565b915061178c83611430565b9250827fffffffffffffffffffffffffffffffffffffffffffffffffffffffffffffffff038211156117c1576117c0611747565b5b828201905092915050565b7f4e487b7100000000000000000000000000000000000000000000000000000000600052601260045260246000fd5b600061180682611430565b915061181183611430565b925082611821576118206117cc565b5b828204905092915050565b7f4f4c41546f6b656e3a20416d6f756e742065786365656473206f6e652074696d60008201527f65206275726e206c696d69740000000000000000000000000000000000000000602082015250565b6000611888602c8361131d565b91506118938261182c565b604082019050919050565b600060208201905081810360008301526118b78161187b565b9050919050565b7f4f776e61626c653a2063616c6c6572206973206e6f7420746865206f776e6572600082015250565b60006118f460208361131d565b91506118ff826118be565b602082019050919050565b60006020820190508181036000830152611923816118e7565b9050919050565b7f45524332303a206275726e20616d6f756e74206578636565647320616c6c6f7760008201527f616e636500000000000000000000000000000000000000000000000000000000602082015250565b600061198660248361131d565b91506119918261192a565b604082019050919050565b600060208201905081810360008301526119b581611979565b9050919050565b7f45524332303a2064656372656173656420616c6c6f77616e63652062656c6f7760008201527f207a65726f000000000000000000000000000000000000000000000000000000602082015250565b6000611a1860258361131d565b9150611a23826119bc565b604082019050919050565b60006020820190508181036000830152611a4781611a0b565b9050919050565b7f4f776e61626c653a206e6577206f776e657220697320746865207a65726f206160008201527f6464726573730000000000000000000000000000000000000000000000000000602082015250565b6000611aaa60268361131d565b9150611ab582611a4e565b604082019050919050565b60006020820190508181036000830152611ad981611a9d565b9050919050565b7f45524332303a20617070726f76652066726f6d20746865207a65726f2061646460008201527f7265737300000000000000000000000000000000000000000000000000000000602082015250565b6000611b3c60248361131d565b9150611b4782611ae0565b604082019050919050565b60006020820190508181036000830152611b6b81611b2f565b9050919050565b7f45524332303a20617070726f766520746f20746865207a65726f20616464726560008201527f7373000000000000000000000000000000000000000000000000000000000000602082015250565b6000611bce60228361131d565b9150611bd982611b72565b604082019050919050565b60006020820190508181036000830152611bfd81611bc1565b9050919050565b7f45524332303a207472616e736665722066726f6d20746865207a65726f20616460008201527f6472657373000000000000000000000000000000000000000000000000000000602082015250565b6000611c6060258361131d565b9150611c6b82611c04565b604082019050919050565b60006020820190508181036000830152611c8f81611c53565b9050919050565b7f45524332303a207472616e7366657220746f20746865207a65726f206164647260008201527f6573730000000000000000000000000000000000000000000000000000000000602082015250565b6000611cf260238361131d565b9150611cfd82611c96565b604082019050919050565b60006020820190508181036000830152611d2181611ce5565b9050919050565b7f45524332303a207472616e7366657220616d6f756e742065786365656473206260008201527f616c616e63650000000000000000000000000000000000000000000000000000602082015250565b6000611d8460268361131d565b9150611d8f82611d28565b604082019050919050565b60006020820190508181036000830152611db381611d77565b9050919050565b7f45524332303a206275726e2066726f6d20746865207a65726f2061646472657360008201527f7300000000000000000000000000000000000000000000000000000000000000602082015250565b6000611e1660218361131d565b9150611e2182611dba565b604082019050919050565b60006020820190508181036000830152611e4581611e09565b9050919050565b7f45524332303a206275726e20616d6f756e7420657863656564732062616c616e60008201527f6365000000000000000000000000000000000000000000000000000000000000602082015250565b6000611ea860228361131d565b9150611eb382611e4c565b604082019050919050565b60006020820190508181036000830152611ed781611e9b565b9050919050565b6000611ee982611430565b9150611ef483611430565b925082821015611f0757611f06611747565b5b82820390509291505056fea26469706673582212208f52feb5c917bf11b6fb25e79bf54357c4ac8f319ef6ba11ca11e87ebd11f51b64736f6c634300080a0033",
  "immutableReferences": {},
  "source": "// SPDX-License-Identifier: MIT\npragma solidity >=0.4.22 <0.9.0;\n\nimport \"@openzeppelin/contracts/token/ERC20/ERC20.sol\";\nimport \"@openzeppelin/contracts/token/ERC20/extensions/ERC20Burnable.sol\";\nimport \"@openzeppelin/contracts/access/Ownable.sol\";\n\n// OLA Token\n//  * NOT mintable\n//  * burnable\ncontract OLAToken is ERC20, ERC20Burnable, Ownable {\n  string public _name = \"OLA Token\";\n  string public _symbol = \"OLA\";\n\n  constructor(uint256 initialSupply) ERC20(_name, _symbol) {\n    _mint(msg.sender, initialSupply * 10 ** decimals());\n  }\n\n  function burn(uint256 amount) public override {\n    require(amount <= totalSupply() / 100, \"OLAToken: Amount exceeds one time burn limit\");\n    _burn(_msgSender(), amount);\n  }\n}\n",
  "sourcePath": "/Users/alekniemczyk/Desktop/Apps/charityland/ola-token/contracts/OLAToken.sol",
  "compiler": {
    "name": "solc",
    "version": "0.8.10+commit.fc410830.Emscripten.clang"
  },
  "schemaVersion": "3.4.3",
  "updatedAt": "2021-12-26T07:24:52.663Z",
  "networkType": "ethereum",
  "devdoc": {
    "kind": "dev",
    "methods": {
      "allowance(address,address)": {
        "details": "See {IERC20-allowance}."
      },
      "approve(address,uint256)": {
        "details": "See {IERC20-approve}. Requirements: - `spender` cannot be the zero address."
      },
      "balanceOf(address)": {
        "details": "See {IERC20-balanceOf}."
      },
      "burn(uint256)": {
        "details": "Destroys `amount` tokens from the caller. See {ERC20-_burn}."
      },
      "burnFrom(address,uint256)": {
        "details": "Destroys `amount` tokens from `account`, deducting from the caller's allowance. See {ERC20-_burn} and {ERC20-allowance}. Requirements: - the caller must have allowance for ``accounts``'s tokens of at least `amount`."
      },
      "decimals()": {
        "details": "Returns the number of decimals used to get its user representation. For example, if `decimals` equals `2`, a balance of `505` tokens should be displayed to a user as `5.05` (`505 / 10 ** 2`). Tokens usually opt for a value of 18, imitating the relationship between Ether and Wei. This is the value {ERC20} uses, unless this function is overridden; NOTE: This information is only used for _display_ purposes: it in no way affects any of the arithmetic of the contract, including {IERC20-balanceOf} and {IERC20-transfer}."
      },
      "decreaseAllowance(address,uint256)": {
        "details": "Atomically decreases the allowance granted to `spender` by the caller. This is an alternative to {approve} that can be used as a mitigation for problems described in {IERC20-approve}. Emits an {Approval} event indicating the updated allowance. Requirements: - `spender` cannot be the zero address. - `spender` must have allowance for the caller of at least `subtractedValue`."
      },
      "increaseAllowance(address,uint256)": {
        "details": "Atomically increases the allowance granted to `spender` by the caller. This is an alternative to {approve} that can be used as a mitigation for problems described in {IERC20-approve}. Emits an {Approval} event indicating the updated allowance. Requirements: - `spender` cannot be the zero address."
      },
      "name()": {
        "details": "Returns the name of the token."
      },
      "owner()": {
        "details": "Returns the address of the current owner."
      },
      "renounceOwnership()": {
        "details": "Leaves the contract without owner. It will not be possible to call `onlyOwner` functions anymore. Can only be called by the current owner. NOTE: Renouncing ownership will leave the contract without an owner, thereby removing any functionality that is only available to the owner."
      },
      "symbol()": {
        "details": "Returns the symbol of the token, usually a shorter version of the name."
      },
      "totalSupply()": {
        "details": "See {IERC20-totalSupply}."
      },
      "transfer(address,uint256)": {
        "details": "See {IERC20-transfer}. Requirements: - `recipient` cannot be the zero address. - the caller must have a balance of at least `amount`."
      },
      "transferFrom(address,address,uint256)": {
        "details": "See {IERC20-transferFrom}. Emits an {Approval} event indicating the updated allowance. This is not required by the EIP. See the note at the beginning of {ERC20}. Requirements: - `sender` and `recipient` cannot be the zero address. - `sender` must have a balance of at least `amount`. - the caller must have allowance for ``sender``'s tokens of at least `amount`."
      },
      "transferOwnership(address)": {
        "details": "Transfers ownership of the contract to a new account (`newOwner`). Can only be called by the current owner."
      }
    },
    "version": 1
  },
  "userdoc": {
    "kind": "user",
    "methods": {},
    "version": 1
  }
}